{
  "contractName": "Lottery",
  "abi": [
    {
      "inputs": [],
      "stateMutability": "nonpayable",
      "type": "constructor"
    },
    {
      "anonymous": false,
      "inputs": [
        {
          "indexed": false,
          "internalType": "address",
          "name": "",
          "type": "address"
        },
        {
          "indexed": false,
          "internalType": "uint256",
          "name": "",
          "type": "uint256"
        },
        {
          "indexed": false,
          "internalType": "address",
          "name": "",
          "type": "address"
        },
        {
          "indexed": false,
          "internalType": "uint256",
          "name": "",
          "type": "uint256"
        }
      ],
      "name": "MoneySent",
      "type": "event"
    },
    {
      "anonymous": false,
      "inputs": [
        {
          "indexed": true,
          "internalType": "address",
          "name": "previousOwner",
          "type": "address"
        },
        {
          "indexed": true,
          "internalType": "address",
          "name": "newOwner",
          "type": "address"
        }
      ],
      "name": "OwnershipTransferred",
      "type": "event"
    },
    {
      "inputs": [],
      "name": "lottery_state",
      "outputs": [
        {
          "internalType": "enum Lottery.LOTTERY_STATE",
          "name": "",
          "type": "uint8"
        }
      ],
      "stateMutability": "view",
      "type": "function"
    },
    {
      "inputs": [],
      "name": "owner",
      "outputs": [
        {
          "internalType": "address",
          "name": "",
          "type": "address"
        }
      ],
      "stateMutability": "view",
      "type": "function"
    },
    {
      "inputs": [
        {
          "internalType": "uint256",
          "name": "",
          "type": "uint256"
        }
      ],
      "name": "players",
      "outputs": [
        {
          "internalType": "address payable",
          "name": "",
          "type": "address"
        }
      ],
      "stateMutability": "view",
      "type": "function"
    },
    {
      "inputs": [],
      "name": "renounceOwnership",
      "outputs": [],
      "stateMutability": "nonpayable",
      "type": "function"
    },
    {
      "inputs": [
        {
          "internalType": "address",
          "name": "newOwner",
          "type": "address"
        }
      ],
      "name": "transferOwnership",
      "outputs": [],
      "stateMutability": "nonpayable",
      "type": "function"
    },
    {
      "inputs": [],
      "name": "winner",
      "outputs": [
        {
          "internalType": "address payable",
          "name": "",
          "type": "address"
        }
      ],
      "stateMutability": "view",
      "type": "function"
    },
    {
      "inputs": [],
      "name": "startLottery",
      "outputs": [],
      "stateMutability": "nonpayable",
      "type": "function"
    },
    {
      "inputs": [],
      "name": "enter",
      "outputs": [],
      "stateMutability": "payable",
      "type": "function"
    },
    {
      "inputs": [],
      "name": "random",
      "outputs": [
        {
          "internalType": "uint256",
          "name": "",
          "type": "uint256"
        }
      ],
      "stateMutability": "view",
      "type": "function"
    },
    {
      "inputs": [],
      "name": "pickWinner",
      "outputs": [
        {
          "internalType": "address",
          "name": "",
          "type": "address"
        }
      ],
      "stateMutability": "nonpayable",
      "type": "function"
    },
    {
      "inputs": [],
      "name": "rewardWinner",
      "outputs": [],
      "stateMutability": "nonpayable",
      "type": "function"
    },
    {
      "inputs": [],
      "name": "endLottery",
      "outputs": [],
      "stateMutability": "nonpayable",
      "type": "function"
    },
    {
      "inputs": [],
      "name": "getAmount",
      "outputs": [
        {
          "internalType": "uint256",
          "name": "",
          "type": "uint256"
        }
      ],
      "stateMutability": "view",
      "type": "function"
    }
  ],
  "bytecode": "0x608060405234801561001057600080fd5b5061002d61002261008360201b60201c565b61008b60201b60201c565b6001600260146101000a81548160ff02191690836002811115610079577f4e487b7100000000000000000000000000000000000000000000000000000000600052602160045260246000fd5b021790555061014f565b600033905090565b60008060009054906101000a900473ffffffffffffffffffffffffffffffffffffffff169050816000806101000a81548173ffffffffffffffffffffffffffffffffffffffff021916908373ffffffffffffffffffffffffffffffffffffffff1602179055508173ffffffffffffffffffffffffffffffffffffffff168173ffffffffffffffffffffffffffffffffffffffff167f8be0079c531659141344cd1fd0a4f28419497f9722a3daafe3b4186f6b6457e060405160405180910390a35050565b6114318061015e6000396000f3fe6080604052600436106100c25760003560e01c80638da5cb5b1161007f578063e97dcb6211610059578063e97dcb621461020e578063f2fde38b14610218578063f71d96cb14610241578063febdb9b81461027e576100c2565b80638da5cb5b1461018d578063d321fe29146101b8578063dfbf53ae146101e3576100c2565b80631593a8c7146100c7578063160344e2146100de5780635d495aea146100f55780635ec01e4d14610120578063715018a61461014b5780638144799914610162575b600080fd5b3480156100d357600080fd5b506100dc610295565b005b3480156100ea57600080fd5b506100f36103b0565b005b34801561010157600080fd5b5061010a6104c5565b604051610117919061107b565b60405180910390f35b34801561012c57600080fd5b50610135610696565b6040516101429190611191565b60405180910390f35b34801561015757600080fd5b506101606106d0565b005b34801561016e57600080fd5b50610177610758565b60405161018491906110f6565b60405180910390f35b34801561019957600080fd5b506101a261076b565b6040516101af919061107b565b60405180910390f35b3480156101c457600080fd5b506101cd610794565b6040516101da9190611191565b60405180910390f35b3480156101ef57600080fd5b506101f8610818565b6040516102059190611096565b60405180910390f35b61021661083e565b005b34801561022457600080fd5b5061023f600480360381019061023a9190610e64565b6109b9565b005b34801561024d57600080fd5b5061026860048036038101906102639190610e8d565b610ab1565b6040516102759190611096565b60405180910390f35b34801561028a57600080fd5b50610293610af0565b005b600067ffffffffffffffff8111156102d6577f4e487b7100000000000000000000000000000000000000000000000000000000600052604160045260246000fd5b6040519080825280602002602001820160405280156103045781602001602082028036833780820191505090505b506001908051906020019061031a929190610d93565b506000600260006101000a81548173ffffffffffffffffffffffffffffffffffffffff021916908373ffffffffffffffffffffffffffffffffffffffff1602179055506001600260146101000a81548160ff021916908360028111156103a9577f4e487b7100000000000000000000000000000000000000000000000000000000600052602160045260246000fd5b0217905550565b600160028111156103ea577f4e487b7100000000000000000000000000000000000000000000000000000000600052602160045260246000fd5b600260149054906101000a900460ff166002811115610432577f4e487b7100000000000000000000000000000000000000000000000000000000600052602160045260246000fd5b14610472576040517f08c379a000000000000000000000000000000000000000000000000000000000815260040161046990611131565b60405180910390fd5b6000600260146101000a81548160ff021916908360028111156104be577f4e487b7100000000000000000000000000000000000000000000000000000000600052602160045260246000fd5b0217905550565b60006104cf610cc7565b73ffffffffffffffffffffffffffffffffffffffff166104ed61076b565b73ffffffffffffffffffffffffffffffffffffffff1614610543576040517f08c379a000000000000000000000000000000000000000000000000000000000815260040161053a90611151565b60405180910390fd5b60028060146101000a81548160ff0219169083600281111561058e577f4e487b7100000000000000000000000000000000000000000000000000000000600052602160045260246000fd5b0217905550600360018054905010156105a657600080fd5b60006105b0610696565b90506000600180549050826105c591906112fb565b905060018181548110610601577f4e487b7100000000000000000000000000000000000000000000000000000000600052603260045260246000fd5b9060005260206000200160009054906101000a900473ffffffffffffffffffffffffffffffffffffffff16600260006101000a81548173ffffffffffffffffffffffffffffffffffffffff021916908373ffffffffffffffffffffffffffffffffffffffff160217905550600260009054906101000a900473ffffffffffffffffffffffffffffffffffffffff169250505090565b600044426001805490506040516020016106b29392919061103e565b6040516020818303038152906040528051906020012060001c905090565b6106d8610cc7565b73ffffffffffffffffffffffffffffffffffffffff166106f661076b565b73ffffffffffffffffffffffffffffffffffffffff161461074c576040517f08c379a000000000000000000000000000000000000000000000000000000000815260040161074390611151565b60405180910390fd5b6107566000610ccf565b565b600260149054906101000a900460ff1681565b60008060009054906101000a900473ffffffffffffffffffffffffffffffffffffffff16905090565b600061079e610cc7565b73ffffffffffffffffffffffffffffffffffffffff166107bc61076b565b73ffffffffffffffffffffffffffffffffffffffff1614610812576040517f08c379a000000000000000000000000000000000000000000000000000000000815260040161080990611151565b60405180910390fd5b47905090565b600260009054906101000a900473ffffffffffffffffffffffffffffffffffffffff1681565b60006002811115610878577f4e487b7100000000000000000000000000000000000000000000000000000000600052602160045260246000fd5b600260149054906101000a900460ff1660028111156108c0577f4e487b7100000000000000000000000000000000000000000000000000000000600052602160045260246000fd5b146108ca57600080fd5b6108d261076b565b73ffffffffffffffffffffffffffffffffffffffff163373ffffffffffffffffffffffffffffffffffffffff16141561090a57600080fd5b66038d7ea4c68000341015610954576040517f08c379a000000000000000000000000000000000000000000000000000000000815260040161094b90611171565b60405180910390fd5b6001339080600181540180825580915050600190039060005260206000200160009091909190916101000a81548173ffffffffffffffffffffffffffffffffffffffff021916908373ffffffffffffffffffffffffffffffffffffffff160217905550565b6109c1610cc7565b73ffffffffffffffffffffffffffffffffffffffff166109df61076b565b73ffffffffffffffffffffffffffffffffffffffff1614610a35576040517f08c379a0000000000000000000000000000000000000000000000000000000008152600401610a2c90611151565b60405180910390fd5b600073ffffffffffffffffffffffffffffffffffffffff168173ffffffffffffffffffffffffffffffffffffffff161415610aa5576040517f08c379a0000000000000000000000000000000000000000000000000000000008152600401610a9c90611111565b60405180910390fd5b610aae81610ccf565b50565b60018181548110610ac157600080fd5b906000526020600020016000915054906101000a900473ffffffffffffffffffffffffffffffffffffffff1681565b610af8610cc7565b73ffffffffffffffffffffffffffffffffffffffff16610b1661076b565b73ffffffffffffffffffffffffffffffffffffffff1614610b6c576040517f08c379a0000000000000000000000000000000000000000000000000000000008152600401610b6390611151565b60405180910390fd5b60006064600547610b7d91906111ee565b610b8791906111bd565b905060006064605f47610b9a91906111ee565b610ba491906111bd565b9050600260009054906101000a900473ffffffffffffffffffffffffffffffffffffffff1673ffffffffffffffffffffffffffffffffffffffff166108fc829081150290604051600060405180830381858888f19350505050158015610c0e573d6000803e3d6000fd5b50610c1761076b565b73ffffffffffffffffffffffffffffffffffffffff166108fc839081150290604051600060405180830381858888f19350505050158015610c5c573d6000803e3d6000fd5b507fc431aa6cb0d5464f630dc22c0038149648e5bd1cc7c8e0fc7b74d3a05337289e600260009054906101000a900473ffffffffffffffffffffffffffffffffffffffff1682610caa61076b565b85604051610cbb94939291906110b1565b60405180910390a15050565b600033905090565b60008060009054906101000a900473ffffffffffffffffffffffffffffffffffffffff169050816000806101000a81548173ffffffffffffffffffffffffffffffffffffffff021916908373ffffffffffffffffffffffffffffffffffffffff1602179055508173ffffffffffffffffffffffffffffffffffffffff168173ffffffffffffffffffffffffffffffffffffffff167f8be0079c531659141344cd1fd0a4f28419497f9722a3daafe3b4186f6b6457e060405160405180910390a35050565b828054828255906000526020600020908101928215610e0c579160200282015b82811115610e0b5782518260006101000a81548173ffffffffffffffffffffffffffffffffffffffff021916908373ffffffffffffffffffffffffffffffffffffffff16021790555091602001919060010190610db3565b5b509050610e199190610e1d565b5090565b5b80821115610e36576000816000905550600101610e1e565b5090565b600081359050610e49816113cd565b92915050565b600081359050610e5e816113e4565b92915050565b600060208284031215610e7657600080fd5b6000610e8484828501610e3a565b91505092915050565b600060208284031215610e9f57600080fd5b6000610ead84828501610e4f565b91505092915050565b610ebf816112a9565b82525050565b610ece8161125a565b82525050565b610edd81611248565b82525050565b610eec816112bb565b82525050565b6000610eff6026836111ac565b91507f4f776e61626c653a206e6577206f776e657220697320746865207a65726f206160008301527f64647265737300000000000000000000000000000000000000000000000000006020830152604082019050919050565b6000610f65601e836111ac565b91507f43616e6e6f742073746172742061206e6577206c6f74746572792079657400006000830152602082019050919050565b6000610fa56020836111ac565b91507f4f776e61626c653a2063616c6c6572206973206e6f7420746865206f776e65726000830152602082019050919050565b6000610fe56013836111ac565b91507f4e6f7420656e6f75676820746f20656e746572000000000000000000000000006000830152602082019050919050565b6110218161129f565b82525050565b6110386110338261129f565b6112f1565b82525050565b600061104a8286611027565b60208201915061105a8285611027565b60208201915061106a8284611027565b602082019150819050949350505050565b60006020820190506110906000830184610ed4565b92915050565b60006020820190506110ab6000830184610ec5565b92915050565b60006080820190506110c66000830187610eb6565b6110d36020830186611018565b6110e06040830185610ed4565b6110ed6060830184611018565b95945050505050565b600060208201905061110b6000830184610ee3565b92915050565b6000602082019050818103600083015261112a81610ef2565b9050919050565b6000602082019050818103600083015261114a81610f58565b9050919050565b6000602082019050818103600083015261116a81610f98565b9050919050565b6000602082019050818103600083015261118a81610fd8565b9050919050565b60006020820190506111a66000830184611018565b92915050565b600082825260208201905092915050565b60006111c88261129f565b91506111d38361129f565b9250826111e3576111e261135b565b5b828204905092915050565b60006111f98261129f565b91506112048361129f565b9250817fffffffffffffffffffffffffffffffffffffffffffffffffffffffffffffffff048311821515161561123d5761123c61132c565b5b828202905092915050565b60006112538261127f565b9050919050565b60006112658261127f565b9050919050565b600081905061127a826113b9565b919050565b600073ffffffffffffffffffffffffffffffffffffffff82169050919050565b6000819050919050565b60006112b4826112cd565b9050919050565b60006112c68261126c565b9050919050565b60006112d8826112df565b9050919050565b60006112ea8261127f565b9050919050565b6000819050919050565b60006113068261129f565b91506113118361129f565b9250826113215761132061135b565b5b828206905092915050565b7f4e487b7100000000000000000000000000000000000000000000000000000000600052601160045260246000fd5b7f4e487b7100000000000000000000000000000000000000000000000000000000600052601260045260246000fd5b7f4e487b7100000000000000000000000000000000000000000000000000000000600052602160045260246000fd5b600381106113ca576113c961138a565b5b50565b6113d681611248565b81146113e157600080fd5b50565b6113ed8161129f565b81146113f857600080fd5b5056fea26469706673582212208a18d63b73785dff10fbffa293bd7949e06aaa6fb956029aacb8fad540a060e764736f6c63430008000033",
  "immutableReferences": {},
  "source": "// SPDX-License-Identifier: MIT\n\npragma solidity ^0.8.0;\n\nimport \"@openzeppelin/contracts/access/Ownable.sol\";\n\ncontract Lottery is Ownable {\n    address payable[] public players;\n    //address public manager;\n    address payable public winner;\n\n    enum LOTTERY_STATE {\n        OPEN,\n        CLOSED,\n        CALCULATING_WINNER\n    }\n    LOTTERY_STATE public lottery_state;\n\n    event MoneySent(address, uint256, address, uint256);\n\n    constructor() {\n        lottery_state = LOTTERY_STATE.CLOSED;\n        // manager = msg.sender;\n    }\n\n    function startLottery() public {\n        // require(msg.sender == manager, \"only manager can start lottery\");\n        require(\n            lottery_state == LOTTERY_STATE.CLOSED,\n            \"Cannot start a new lottery yet\"\n        );\n\n        lottery_state = LOTTERY_STATE.OPEN;\n    }\n\n    function enter() public payable {\n        require(lottery_state == LOTTERY_STATE.OPEN);\n        require(msg.sender != owner());\n        require(msg.value >= 0.001 ether, \"Not enough to enter\");\n        players.push(payable(msg.sender));\n    }\n\n    // helper function that returns a big random integer\n    function random() public view returns (uint256) {\n        return\n            uint256(\n                keccak256(\n                    abi.encodePacked(\n                        block.difficulty,\n                        block.timestamp,\n                        players.length\n                    )\n                )\n            );\n    }\n\n    function pickWinner() public onlyOwner returns (address) {\n        lottery_state = LOTTERY_STATE.CALCULATING_WINNER;\n\n        // only the manager can pick a winner if there are at least 3 players in the lottery\n        //require(msg.sender == manager);\n        require(players.length >= 3);\n\n        uint256 r = random();\n        // computing a random index of the array\n        uint256 index = r % players.length;\n\n        winner = players[index]; // this is the winner\n        return winner;\n    }\n\n    function rewardWinner() public onlyOwner {\n        //require(msg.sender == manager);\n        uint256 ownerFee = (address(this).balance * 5) / 100; // owner fee is 5%\n        uint256 winnerPrize = (address(this).balance * 95) / 100; // winner prize is 95%\n\n        // transferring 90% of contract's balance to the winner\n        winner.transfer(winnerPrize);\n\n        // transferring 10% of contract's balance to the manager\n        payable(owner()).transfer(ownerFee);\n        emit MoneySent(winner, winnerPrize, owner(), ownerFee);\n    }\n\n    function endLottery() public {\n        //require(\n        //lottery_state == LOTTERY_STATE.CALCULATING_WINNER,\n        // \"Winner not yet announced\"\n        //);\n        // resetting the lottery for the next round\n        players = new address payable[](0);\n        winner = payable(address(0));\n        lottery_state = LOTTERY_STATE.CLOSED;\n    }\n\n    function getAmount() public view onlyOwner returns (uint256) {\n        return address(this).balance;\n    }\n}\n",
  "sourcePath": "/Users/mehdirhouzlane/lottery/contracts/Lottery.sol",
  "compiler": {
    "name": "solc",
    "version": "0.8.0+commit.c7dfd78e.Emscripten.clang"
  },
  "schemaVersion": "3.4.4",
  "updatedAt": "2022-01-14T09:38:01.737Z",
  "devdoc": {
    "kind": "dev",
    "methods": {
      "owner()": {
        "details": "Returns the address of the current owner."
      },
      "renounceOwnership()": {
        "details": "Leaves the contract without owner. It will not be possible to call `onlyOwner` functions anymore. Can only be called by the current owner. NOTE: Renouncing ownership will leave the contract without an owner, thereby removing any functionality that is only available to the owner."
      },
      "transferOwnership(address)": {
        "details": "Transfers ownership of the contract to a new account (`newOwner`). Can only be called by the current owner."
      }
    },
    "version": 1
  },
  "userdoc": {
    "kind": "user",
    "methods": {},
    "version": 1
  }
}