{
  "contractName": "Lottery",
  "abi": [
    {
      "inputs": [],
      "stateMutability": "nonpayable",
      "type": "constructor"
    },
    {
      "anonymous": false,
      "inputs": [
        {
          "indexed": false,
          "internalType": "address",
          "name": "",
          "type": "address"
        },
        {
          "indexed": false,
          "internalType": "uint256",
          "name": "",
          "type": "uint256"
        },
        {
          "indexed": false,
          "internalType": "address",
          "name": "",
          "type": "address"
        },
        {
          "indexed": false,
          "internalType": "uint256",
          "name": "",
          "type": "uint256"
        }
      ],
      "name": "MoneySent",
      "type": "event"
    },
    {
      "anonymous": false,
      "inputs": [
        {
          "indexed": true,
          "internalType": "address",
          "name": "previousOwner",
          "type": "address"
        },
        {
          "indexed": true,
          "internalType": "address",
          "name": "newOwner",
          "type": "address"
        }
      ],
      "name": "OwnershipTransferred",
      "type": "event"
    },
    {
      "inputs": [],
      "name": "lottery_state",
      "outputs": [
        {
          "internalType": "enum Lottery.LOTTERY_STATE",
          "name": "",
          "type": "uint8"
        }
      ],
      "stateMutability": "view",
      "type": "function",
      "constant": true
    },
    {
      "inputs": [],
      "name": "owner",
      "outputs": [
        {
          "internalType": "address",
          "name": "",
          "type": "address"
        }
      ],
      "stateMutability": "view",
      "type": "function",
      "constant": true
    },
    {
      "inputs": [
        {
          "internalType": "uint256",
          "name": "",
          "type": "uint256"
        }
      ],
      "name": "players",
      "outputs": [
        {
          "internalType": "address payable",
          "name": "",
          "type": "address"
        }
      ],
      "stateMutability": "view",
      "type": "function",
      "constant": true
    },
    {
      "inputs": [],
      "name": "renounceOwnership",
      "outputs": [],
      "stateMutability": "nonpayable",
      "type": "function"
    },
    {
      "inputs": [
        {
          "internalType": "address",
          "name": "newOwner",
          "type": "address"
        }
      ],
      "name": "transferOwnership",
      "outputs": [],
      "stateMutability": "nonpayable",
      "type": "function"
    },
    {
      "inputs": [],
      "name": "winner",
      "outputs": [
        {
          "internalType": "address payable",
          "name": "",
          "type": "address"
        }
      ],
      "stateMutability": "view",
      "type": "function",
      "constant": true
    },
    {
      "inputs": [],
      "name": "startLottery",
      "outputs": [],
      "stateMutability": "nonpayable",
      "type": "function"
    },
    {
      "inputs": [],
      "name": "enter",
      "outputs": [],
      "stateMutability": "payable",
      "type": "function",
      "payable": true
    },
    {
      "inputs": [],
      "name": "random",
      "outputs": [
        {
          "internalType": "uint256",
          "name": "",
          "type": "uint256"
        }
      ],
      "stateMutability": "view",
      "type": "function",
      "constant": true
    },
    {
      "inputs": [],
      "name": "pickWinner",
      "outputs": [
        {
          "internalType": "address",
          "name": "",
          "type": "address"
        }
      ],
      "stateMutability": "nonpayable",
      "type": "function"
    },
    {
      "inputs": [],
      "name": "rewardWinner",
      "outputs": [],
      "stateMutability": "nonpayable",
      "type": "function"
    },
    {
      "inputs": [],
      "name": "endLottery",
      "outputs": [],
      "stateMutability": "nonpayable",
      "type": "function"
    },
    {
      "inputs": [],
      "name": "getAmount",
      "outputs": [
        {
          "internalType": "uint256",
          "name": "",
          "type": "uint256"
        }
      ],
      "stateMutability": "view",
      "type": "function",
      "constant": true
    }
  ],
  "bytecode": "0x608060405234801561001057600080fd5b5061002d61002261008360201b60201c565b61008b60201b60201c565b6001600260146101000a81548160ff02191690836002811115610079577f4e487b7100000000000000000000000000000000000000000000000000000000600052602160045260246000fd5b021790555061014f565b600033905090565b60008060009054906101000a900473ffffffffffffffffffffffffffffffffffffffff169050816000806101000a81548173ffffffffffffffffffffffffffffffffffffffff021916908373ffffffffffffffffffffffffffffffffffffffff1602179055508173ffffffffffffffffffffffffffffffffffffffff168173ffffffffffffffffffffffffffffffffffffffff167f8be0079c531659141344cd1fd0a4f28419497f9722a3daafe3b4186f6b6457e060405160405180910390a35050565b6115298061015e6000396000f3fe6080604052600436106100c25760003560e01c80638da5cb5b1161007f578063e97dcb6211610059578063e97dcb621461020e578063f2fde38b14610218578063f71d96cb14610241578063febdb9b81461027e576100c2565b80638da5cb5b1461018d578063d321fe29146101b8578063dfbf53ae146101e3576100c2565b80631593a8c7146100c7578063160344e2146100de5780635d495aea146100f55780635ec01e4d14610120578063715018a61461014b5780638144799914610162575b600080fd5b3480156100d357600080fd5b506100dc610295565b005b3480156100ea57600080fd5b506100f361042c565b005b34801561010157600080fd5b5061010a6105bd565b6040516101179190611173565b60405180910390f35b34801561012c57600080fd5b5061013561078e565b6040516101429190611289565b60405180910390f35b34801561015757600080fd5b506101606107c8565b005b34801561016e57600080fd5b50610177610850565b60405161018491906111ee565b60405180910390f35b34801561019957600080fd5b506101a2610863565b6040516101af9190611173565b60405180910390f35b3480156101c457600080fd5b506101cd61088c565b6040516101da9190611289565b60405180910390f35b3480156101ef57600080fd5b506101f8610910565b604051610205919061118e565b60405180910390f35b610216610936565b005b34801561022457600080fd5b5061023f600480360381019061023a9190610f5c565b610ab1565b005b34801561024d57600080fd5b5061026860048036038101906102639190610f85565b610ba9565b604051610275919061118e565b60405180910390f35b34801561028a57600080fd5b50610293610be8565b005b61029d610dbf565b73ffffffffffffffffffffffffffffffffffffffff166102bb610863565b73ffffffffffffffffffffffffffffffffffffffff1614610311576040517f08c379a000000000000000000000000000000000000000000000000000000000815260040161030890611249565b60405180910390fd5b600067ffffffffffffffff811115610352577f4e487b7100000000000000000000000000000000000000000000000000000000600052604160045260246000fd5b6040519080825280602002602001820160405280156103805781602001602082028036833780820191505090505b5060019080519060200190610396929190610e8b565b506000600260006101000a81548173ffffffffffffffffffffffffffffffffffffffff021916908373ffffffffffffffffffffffffffffffffffffffff1602179055506001600260146101000a81548160ff02191690836002811115610425577f4e487b7100000000000000000000000000000000000000000000000000000000600052602160045260246000fd5b0217905550565b610434610dbf565b73ffffffffffffffffffffffffffffffffffffffff16610452610863565b73ffffffffffffffffffffffffffffffffffffffff16146104a8576040517f08c379a000000000000000000000000000000000000000000000000000000000815260040161049f90611249565b60405180910390fd5b600160028111156104e2577f4e487b7100000000000000000000000000000000000000000000000000000000600052602160045260246000fd5b600260149054906101000a900460ff16600281111561052a577f4e487b7100000000000000000000000000000000000000000000000000000000600052602160045260246000fd5b1461056a576040517f08c379a000000000000000000000000000000000000000000000000000000000815260040161056190611229565b60405180910390fd5b6000600260146101000a81548160ff021916908360028111156105b6577f4e487b7100000000000000000000000000000000000000000000000000000000600052602160045260246000fd5b0217905550565b60006105c7610dbf565b73ffffffffffffffffffffffffffffffffffffffff166105e5610863565b73ffffffffffffffffffffffffffffffffffffffff161461063b576040517f08c379a000000000000000000000000000000000000000000000000000000000815260040161063290611249565b60405180910390fd5b60028060146101000a81548160ff02191690836002811115610686577f4e487b7100000000000000000000000000000000000000000000000000000000600052602160045260246000fd5b02179055506003600180549050101561069e57600080fd5b60006106a861078e565b90506000600180549050826106bd91906113f3565b9050600181815481106106f9577f4e487b7100000000000000000000000000000000000000000000000000000000600052603260045260246000fd5b9060005260206000200160009054906101000a900473ffffffffffffffffffffffffffffffffffffffff16600260006101000a81548173ffffffffffffffffffffffffffffffffffffffff021916908373ffffffffffffffffffffffffffffffffffffffff160217905550600260009054906101000a900473ffffffffffffffffffffffffffffffffffffffff169250505090565b600044426001805490506040516020016107aa93929190611136565b6040516020818303038152906040528051906020012060001c905090565b6107d0610dbf565b73ffffffffffffffffffffffffffffffffffffffff166107ee610863565b73ffffffffffffffffffffffffffffffffffffffff1614610844576040517f08c379a000000000000000000000000000000000000000000000000000000000815260040161083b90611249565b60405180910390fd5b61084e6000610dc7565b565b600260149054906101000a900460ff1681565b60008060009054906101000a900473ffffffffffffffffffffffffffffffffffffffff16905090565b6000610896610dbf565b73ffffffffffffffffffffffffffffffffffffffff166108b4610863565b73ffffffffffffffffffffffffffffffffffffffff161461090a576040517f08c379a000000000000000000000000000000000000000000000000000000000815260040161090190611249565b60405180910390fd5b47905090565b600260009054906101000a900473ffffffffffffffffffffffffffffffffffffffff1681565b60006002811115610970577f4e487b7100000000000000000000000000000000000000000000000000000000600052602160045260246000fd5b600260149054906101000a900460ff1660028111156109b8577f4e487b7100000000000000000000000000000000000000000000000000000000600052602160045260246000fd5b146109c257600080fd5b6109ca610863565b73ffffffffffffffffffffffffffffffffffffffff163373ffffffffffffffffffffffffffffffffffffffff161415610a0257600080fd5b66038d7ea4c68000341015610a4c576040517f08c379a0000000000000000000000000000000000000000000000000000000008152600401610a4390611269565b60405180910390fd5b6001339080600181540180825580915050600190039060005260206000200160009091909190916101000a81548173ffffffffffffffffffffffffffffffffffffffff021916908373ffffffffffffffffffffffffffffffffffffffff160217905550565b610ab9610dbf565b73ffffffffffffffffffffffffffffffffffffffff16610ad7610863565b73ffffffffffffffffffffffffffffffffffffffff1614610b2d576040517f08c379a0000000000000000000000000000000000000000000000000000000008152600401610b2490611249565b60405180910390fd5b600073ffffffffffffffffffffffffffffffffffffffff168173ffffffffffffffffffffffffffffffffffffffff161415610b9d576040517f08c379a0000000000000000000000000000000000000000000000000000000008152600401610b9490611209565b60405180910390fd5b610ba681610dc7565b50565b60018181548110610bb957600080fd5b906000526020600020016000915054906101000a900473ffffffffffffffffffffffffffffffffffffffff1681565b610bf0610dbf565b73ffffffffffffffffffffffffffffffffffffffff16610c0e610863565b73ffffffffffffffffffffffffffffffffffffffff1614610c64576040517f08c379a0000000000000000000000000000000000000000000000000000000008152600401610c5b90611249565b60405180910390fd5b60006064600547610c7591906112e6565b610c7f91906112b5565b905060006064605f47610c9291906112e6565b610c9c91906112b5565b9050600260009054906101000a900473ffffffffffffffffffffffffffffffffffffffff1673ffffffffffffffffffffffffffffffffffffffff166108fc829081150290604051600060405180830381858888f19350505050158015610d06573d6000803e3d6000fd5b50610d0f610863565b73ffffffffffffffffffffffffffffffffffffffff166108fc839081150290604051600060405180830381858888f19350505050158015610d54573d6000803e3d6000fd5b507fc431aa6cb0d5464f630dc22c0038149648e5bd1cc7c8e0fc7b74d3a05337289e600260009054906101000a900473ffffffffffffffffffffffffffffffffffffffff1682610da2610863565b85604051610db394939291906111a9565b60405180910390a15050565b600033905090565b60008060009054906101000a900473ffffffffffffffffffffffffffffffffffffffff169050816000806101000a81548173ffffffffffffffffffffffffffffffffffffffff021916908373ffffffffffffffffffffffffffffffffffffffff1602179055508173ffffffffffffffffffffffffffffffffffffffff168173ffffffffffffffffffffffffffffffffffffffff167f8be0079c531659141344cd1fd0a4f28419497f9722a3daafe3b4186f6b6457e060405160405180910390a35050565b828054828255906000526020600020908101928215610f04579160200282015b82811115610f035782518260006101000a81548173ffffffffffffffffffffffffffffffffffffffff021916908373ffffffffffffffffffffffffffffffffffffffff16021790555091602001919060010190610eab565b5b509050610f119190610f15565b5090565b5b80821115610f2e576000816000905550600101610f16565b5090565b600081359050610f41816114c5565b92915050565b600081359050610f56816114dc565b92915050565b600060208284031215610f6e57600080fd5b6000610f7c84828501610f32565b91505092915050565b600060208284031215610f9757600080fd5b6000610fa584828501610f47565b91505092915050565b610fb7816113a1565b82525050565b610fc681611352565b82525050565b610fd581611340565b82525050565b610fe4816113b3565b82525050565b6000610ff76026836112a4565b91507f4f776e61626c653a206e6577206f776e657220697320746865207a65726f206160008301527f64647265737300000000000000000000000000000000000000000000000000006020830152604082019050919050565b600061105d601e836112a4565b91507f43616e6e6f742073746172742061206e6577206c6f74746572792079657400006000830152602082019050919050565b600061109d6020836112a4565b91507f4f776e61626c653a2063616c6c6572206973206e6f7420746865206f776e65726000830152602082019050919050565b60006110dd6013836112a4565b91507f4e6f7420656e6f75676820746f20656e746572000000000000000000000000006000830152602082019050919050565b61111981611397565b82525050565b61113061112b82611397565b6113e9565b82525050565b6000611142828661111f565b602082019150611152828561111f565b602082019150611162828461111f565b602082019150819050949350505050565b60006020820190506111886000830184610fcc565b92915050565b60006020820190506111a36000830184610fbd565b92915050565b60006080820190506111be6000830187610fae565b6111cb6020830186611110565b6111d86040830185610fcc565b6111e56060830184611110565b95945050505050565b60006020820190506112036000830184610fdb565b92915050565b6000602082019050818103600083015261122281610fea565b9050919050565b6000602082019050818103600083015261124281611050565b9050919050565b6000602082019050818103600083015261126281611090565b9050919050565b60006020820190508181036000830152611282816110d0565b9050919050565b600060208201905061129e6000830184611110565b92915050565b600082825260208201905092915050565b60006112c082611397565b91506112cb83611397565b9250826112db576112da611453565b5b828204905092915050565b60006112f182611397565b91506112fc83611397565b9250817fffffffffffffffffffffffffffffffffffffffffffffffffffffffffffffffff048311821515161561133557611334611424565b5b828202905092915050565b600061134b82611377565b9050919050565b600061135d82611377565b9050919050565b6000819050611372826114b1565b919050565b600073ffffffffffffffffffffffffffffffffffffffff82169050919050565b6000819050919050565b60006113ac826113c5565b9050919050565b60006113be82611364565b9050919050565b60006113d0826113d7565b9050919050565b60006113e282611377565b9050919050565b6000819050919050565b60006113fe82611397565b915061140983611397565b92508261141957611418611453565b5b828206905092915050565b7f4e487b7100000000000000000000000000000000000000000000000000000000600052601160045260246000fd5b7f4e487b7100000000000000000000000000000000000000000000000000000000600052601260045260246000fd5b7f4e487b7100000000000000000000000000000000000000000000000000000000600052602160045260246000fd5b600381106114c2576114c1611482565b5b50565b6114ce81611340565b81146114d957600080fd5b50565b6114e581611397565b81146114f057600080fd5b5056fea2646970667358221220cf18c2cebe7b3a7ca4c763868b6a9038314ea1dccb76177eb00b7eaad13ea46c64736f6c63430008000033",
  "immutableReferences": {},
  "source": "// SPDX-License-Identifier: MIT\npragma solidity ^0.8.0;\n\nimport \"@openzeppelin/contracts/access/Ownable.sol\";\n\n//@title A lottery game\n//@author R. Mehdi\n//@notice You can use this contract for only the most basic simulation\n//@dev All function calls are currently implemented without side effects\n//@custom:experimental Experimental contract\n\ncontract Lottery is Ownable {\n    address payable[] public players;\n    //address public manager;\n    address payable public winner;\n\n    enum LOTTERY_STATE {\n        OPEN,\n        CLOSED,\n        CALCULATING_WINNER\n    }\n    LOTTERY_STATE public lottery_state;\n\n    event MoneySent(address, uint256, address, uint256);\n\n    constructor() {\n        lottery_state = LOTTERY_STATE.CLOSED;\n        // manager = msg.sender;\n    }\n\n    //@notice Changes the status of lottery to open\n    function startLottery() public onlyOwner {\n        // require(msg.sender == manager, \"only manager can start lottery\");\n        require(\n            lottery_state == LOTTERY_STATE.CLOSED,\n            \"Cannot start a new lottery yet\"\n        );\n\n        lottery_state = LOTTERY_STATE.OPEN;\n    }\n\n    //@notice Add the players to the lottery array\n    function enter() public payable {\n        require(lottery_state == LOTTERY_STATE.OPEN);\n        require(msg.sender != owner());\n        require(msg.value >= 0.001 ether, \"Not enough to enter\");\n        players.push(payable(msg.sender));\n    }\n\n    //@notice Returns a big random integer\n    function random() public view returns (uint256) {\n        return\n            uint256(\n                keccak256(\n                    abi.encodePacked(\n                        block.difficulty,\n                        block.timestamp,\n                        players.length\n                    )\n                )\n            );\n    }\n\n    //@notice Returns the address of the winner of the lottery\n    function pickWinner() public onlyOwner returns (address) {\n        lottery_state = LOTTERY_STATE.CALCULATING_WINNER;\n\n        // only the manager can pick a winner if there are at least 3 players in the lottery\n        //require(msg.sender == manager);\n        require(players.length >= 3);\n\n        uint256 r = random();\n        // computing a random index of the array\n        uint256 index = r % players.length;\n\n        winner = players[index]; // this is the winner\n        return winner;\n    }\n\n    //@notice Transfers 95% of the lottery balance to the winner and 5% to the owner\n    function rewardWinner() public onlyOwner {\n        uint256 ownerFee = (address(this).balance * 5) / 100; // owner fee is 5%\n        uint256 winnerPrize = (address(this).balance * 95) / 100; // winner prize is 95%\n\n        // transferring 95% of Balance of contract to the winner\n        winner.transfer(winnerPrize);\n\n        // transferring 5% of Balance of contract to the owner\n        payable(owner()).transfer(ownerFee);\n        emit MoneySent(winner, winnerPrize, owner(), ownerFee);\n    }\n\n    //@notice Reset the lottery\n    function endLottery() public onlyOwner {\n        // Reset players[] to 0\n        players = new address payable[](0);\n        // Reset the winner\n        winner = payable(address(0));\n        lottery_state = LOTTERY_STATE.CLOSED;\n    }\n\n    //@notice Eeturns the balance of the lottery\n    function getAmount() public view onlyOwner returns (uint256) {\n        return address(this).balance;\n    }\n}\n",
  "sourcePath": "/Users/mehdirhouzlane/lottery/contracts/Lottery.sol",
  "compiler": {
    "name": "solc",
    "version": "0.8.0+commit.c7dfd78e.Emscripten.clang"
  },
  "schemaVersion": "3.4.4",
  "updatedAt": "2022-01-14T21:46:56.387Z",
  "networkType": "ethereum",
  "devdoc": {
    "kind": "dev",
    "methods": {
      "owner()": {
        "details": "Returns the address of the current owner."
      },
      "renounceOwnership()": {
        "details": "Leaves the contract without owner. It will not be possible to call `onlyOwner` functions anymore. Can only be called by the current owner. NOTE: Renouncing ownership will leave the contract without an owner, thereby removing any functionality that is only available to the owner."
      },
      "transferOwnership(address)": {
        "details": "Transfers ownership of the contract to a new account (`newOwner`). Can only be called by the current owner."
      }
    },
    "version": 1
  },
  "userdoc": {
    "kind": "user",
    "methods": {},
    "version": 1
  }
}